:100000000C9434000C9451000C9451000C94510049
:100010000C9451000C9451000C9451000C941B0151
:100020000C9451000C9451000C9451000C9451000C
:100030000C9451000C9451000C944A070C945100FC
:100040000C9451000C9451000C9451000C945100EC
:100050000C9451000C9451000C9451000C945100DC
:100060000C9451000C94510011241FBECFEFD8E026
:10007000DEBFCDBF12E0A0E0B1E0E4EDF7E102C0E9
:1000800005900D92A83FB107D9F723E0A8EFB2E0A1
:1000900001C01D92A437B207E1F70E948A080C94B0
:1000A000E80B0C940000662311F05E9A01C05E9884
:1000B000882314F4589A01C0589886FF02C0599AB0
:1000C00001C0599885FF02C05A9A01C05A9884FF0E
:1000D00002C05C9A01C05C9800005D9A00C000C03C
:1000E0005D9883FF02C0589A01C0589882FF02C0F1
:1000F000599A01C0599881FF02C05A9A01C05A9872
:1001000080FF02C05C9A01C05C9800005D9A00C04C
:1001100000C05D98589A599A5A9A5C9A611109C020
:10012000843038F48FEC9CE00197F1F700C00000B8
:1001300008959AE69A95F1F700C0089560E00E944C
:100140005300089580580E949E00089581E00E9407
:100150009E00089582E00E949E00089561E00E9442
:1001600053000895CF93DF93EC012196FC01808129
:10017000882329F00E94AE0089918111FBCFDF9185
:10018000CF910895559A569A509A519A529A549AE4
:100190005D985E98589A599A5A9A5C9A8FE295E7B8
:1001A0000197F1F700C000005898599800005D9A37
:1001B00000C000C05D9887E090E20197F1F700C0B1
:1001C00000005D9A00C000C05D9887EC90E0019748
:1001D000F1F700C000005D9A00C000C05D989AE68B
:1001E0009A95F1F700C05C9800005D9A00C000C0CD
:1001F0005D988AE68A95F1F700C05C9800005D9AE8
:1002000000C000C05D9800C000C0589A00005D9A10
:1002100000C000C05D989AE69A95F1F700C088E0AA
:100220000E949E000E94A60086E00E949E008CE034
:100230000E949E0008951F920F920FB60F921124F4
:100240008F939F9398B181E0911180E088B99F913D
:100250008F910F900FBE0F901F901895E82FF0E030
:10026000E45EFE4F80810E94A2008AE20E94AE00FE
:100270000895009741F0EFECF7E03197F1F700C0F7
:1002800000000197C1F708950F931F93CF93DF9359
:10029000CDB7DEB760970FB6F894DEBF0FBECDBF07
:1002A0004091FB02242F30E0C901880F991F220FD3
:1002B000331F220F331F220F331F820F931F805FC4
:1002C0009C4F9F938F931F924F9389E491E09F934C
:1002D0008F938E010F5F1F4F1F930F930E94B408DF
:1002E0000E94A6000E94AA0080E591E00E94B20050
:1002F00080E40E94A200C8010E94B2000FB6F894E8
:10030000DEBF0FBECDBF60960FB6F894DEBF0FBE46
:10031000CDBFDF91CF911F910F910895CF93C82F3B
:100320000E94A6000E94AA00C23089F128F4CC23C2
:1003300051F0C130D1F092C0C33009F44CC0C43088
:1003400009F46EC08BC081E691E00E94B20080E4A7
:100350000E94A2008AE691E00E94B2008FE00E9413
:10036000A2008FE60E94AE0079C081E691E00E9473
:10037000B20080E40E94A2008AE691E00E94B200EE
:100380008FE40E94A2008FE60E94AE0067C08091B9
:10039000FA02813029F483E791E00E94B20004C0A0
:1003A00081E891E00E94B2008FE00E94A2008FE6F7
:1003B0000E94AE0080E40E94A2008091F8028111A8
:1003C00005C080E991E00E94B20048C08FE991E049
:1003D0000E94B20043C08091FA02813029F483E781
:1003E00091E00E94B20004C081E891E00E94B20056
:1003F00080E40E94A2008091F802811105C080E98A
:1004000091E00E94B20004C08FE991E00E94B20026
:100410008FE40E94A2008EEA91E00E94B2001EC00A
:1004200080910A01813021F480EB91E00E94B200BA
:1004300080910A01823021F480EC91E00E94B200A8
:1004400080910A01833021F480ED91E00E94B20096
:100450008FE00E94A2008FE60E94AE00CF91089527
:100460000E94A6000E94AA0080EE91E00E94B200C5
:1004700008958AE0E5E0F3E0DF011D928A95E9F74F
:10048000109203030E9430020895CF93DF938536C4
:1004900021F120F4843609F4CCC0AEC1863609F4CB
:1004A0007BC1873609F0A8C187E08093B300A0EB39
:1004B000B0E083E38C93E1EBF0E08FE080832FEFFB
:1004C00033EF41E0215030404040E1F700C00000F0
:1004D00083E08C9388E080838FC180910A01813012
:1004E00089F5C3EBD0E087E08883A0EBB0E033E38D
:1004F0003C93E1EBF0E02FE020835FEF63EF71E0EE
:10050000515060407040E1F700C0000093E09C93C0
:1005100088E080834FEF53EF61E0415050406040EE
:10052000E1F700C0000045E048833C9320837FEF63
:1005300023EF31E0715020403040E1F700C000006F
:100540009C93808380910A018230E9F5C3EBD0E06F
:1005500087E08883A0EBB0E023E32C93E1EBF0E0AD
:100560009FE090834FEF53EF61E041505040604077
:10057000E1F700C0000083E08C9338E030837FEF28
:1005800043EF51E0715040405040E1F700C000009F
:1005900045E048832C9390836FEF73EF41E0615007
:1005A00070404040E1F700C0000088832C939083A6
:1005B0005FE76FEA72E0515060407040E1F700C0C1
:1005C00000008C93308380910A01833009F014C1BC
:1005D000C3EBD0E085E08883A0EBB0E033E33C934D
:1005E000E1EBF0E02FE020838FEF93EF41E08150CB
:1005F00090404040E1F700C0000083E08C9398E019
:1006000090835FEF63EF71E0515060407040E1F71D
:1006100000C0000088833C9320832FE739EA43E041
:10062000215030404040E1F700C000008C9390839F
:10063000E3C080910A01813079F5C3EBD0E08FE00F
:100640008883A0EBB0E033E33C93E1EBF0E0808300
:100650005FE769EA73E0515060407040E1F700C025
:10066000000023E02C9398E090834FE759EA63E081
:10067000415050406040E1F700C0000088833C9347
:1006800080837FE789EA33E0715080403040E1F7B2
:1006900000C000002C93908380910A01823009F001
:1006A00046C0C3EBD0E08FE08883A0EBB0E033E33B
:1006B0003C93E1EBF0E080834FEF53EF61E041507A
:1006C00050406040E1F700C0000023E02C9398E028
:1006D00090837FEF43EF51E0715040405040E1F78D
:1006E00000C0000088833C9380836FEF73EF41E08C
:1006F000615070404040E1F700C000002C939083AF
:100700005FEF63EF71E0515060407040E1F700C06F
:10071000000088833C9380838FEF33EF41E081506A
:1007200030404040E1F700C000002C93908380915E
:100730000A01833009F060C0C3EBD0E08FE088830A
:10074000A0EBB0E033E33C93E1EBF0E080835FE7C4
:100750006FEA72E0515060407040E1F700C0000065
:1007600023E02C9398E090834FE75FEA62E04150EA
:1007700050406040E1F700C0000088833C938083D4
:100780007FE78FEA32E0715080403040E1F700C0EF
:1007900000002C93908330C0C3EBD0E047E0488347
:1007A000A0EBB0E033E33C93E1EBF0E02FE02083FB
:1007B0005FEF66E771E0515060407040E1F700C0C4
:1007C000000093E09C9388E080835FEF66E771E030
:1007D000515060407040E1F700C0000048833C93F6
:1007E00020832FEF36E741E0215030404040E1F7D1
:1007F00000C000009C938083DF91CF9108950E94F8
:10080000A6000E94AA0081EF91E00E94B20084E657
:1008100090E00E9445022FEF89E698E12150804048
:100820009040E1F700C000008091FA028130C1F5EC
:100830008091F9028F5F8093F902833089F50E94DD
:10084000A6000E94AA0081E092E00E94B20080E42B
:100850000E94A20082E192E00E94B2002FEF89E69E
:1008600098E1215080409040E1F700C0000015B8A9
:100870000E94A6000E94AA0080910B0190910C0199
:100880000E9439011092F90280910B0190910C01A4
:10089000880F991F90930C0180930B0180E885B914
:1008A0000E943902089580E395E790930C018093AC
:1008B0000B010E94A6000E94AA0083E292E00E941F
:1008C000B2008091F802811103C080E88BB901C0A9
:1008D0001BB880E188B985E690E00E9445022FEFC1
:1008E00084E39CE0215080409040E1F700C000008C
:1008F00018B80E94A6000E94AA0083E392E00E941A
:10090000B20080E40E94A20084E492E00E94B2005F
:100910002FEF89E698E1215080409040E1F700C038
:1009200000008BE40E94A20082E30E94AE002FEF41
:1009300089E698E1215080409040E1F700C0000036
:100940008BE40E94A20081E30E94AE002FEF89E6B3
:1009500098E1215080409040E1F700C00000809174
:10096000F802811102C01BB802C080E88BB90E9456
:1009700039020E9430020895CF92DF92EF92FF92E7
:100980000F931F93CF93DF93CDB7DEB764970FB666
:10099000F894DEBF0FBECDBF0F2EF3E3EF2EF1E0D4
:1009A000FF2EF02D00E113E00F2EF4E7CF2EF3E041
:1009B000DF2EF02DF701619171917F014AE050E047
:1009C000CE0101960E94670BBE016F5F7F4FC80189
:1009D0000E94AD0865E572E0C8010E94A408892B59
:1009E00029F0809104038F5F80930403065F1F4FFB
:1009F0000C151D05F9F64AE050E060E070E0CE010C
:100A00000B960E94670B6AE572E0CE010B960E947E
:100A1000A408892B19F41092F80203C081E0809396
:100A2000F80264960FB6F894DEBF0FBECDBFDF911B
:100A3000CF911F910F91FF90EF90DF90CF9008958D
:100A400080910E0181114DC0E0910D01F0E0EE0F9B
:100A5000FF1FED5CFE4F608171814AE050E085E050
:100A600093E00E94990B20910D0130E0C901880F9D
:100A7000991F220F331F220F331F220F331F820FA4
:100A8000931F65E073E0805F9C4F0E94AD088CE08F
:100A900080930D010E94A60081E692E00E94B200C0
:100AA00080E40E94A20082E792E00E94B20086E603
:100AB0000E9445022FEF8EE994E221508040904041
:100AC000E1F700C000008AE0E5E0F3E0DF011D92FD
:100AD0008A95E9F710920303809104038F5F809356
:100AE000040380910E01813009F064C080910403F9
:100AF0008130D1F40E94A60083E892E00E94B20007
:100B000080E40E94A20084E992E00E94B20084E6A0
:100B10000E944502BFEF2EE984E2B15020408040A0
:100B2000E1F700C0000046C0E091FB02F0E0EE0FEC
:100B3000FF1FED5CFE4F608171814AE050E085E56A
:100B400092E00E94770B8091FB0290E0DC01AA0FFB
:100B5000BB1F880F991F880F991F880F991FA80F17
:100B6000B91FA05FBC4F85E0E5E5F2E001900D9272
:100B70008A95E1F70E94A60084EA92E00E94B20002
:100B800080E40E94A20085EB92E00E94B20086E61B
:100B90000E9445029FEFAEE9B4E29150A040B04000
:100BA000E1F700C000001092FB0280910403815025
:100BB0008093040389E080930E0180E00E948E01FF
:100BC00081E08093FE021092FC0208950F931F9320
:100BD000CF93DF93833409F4D2C0853409F0F4C095
:100BE00080910E01893019F00E9420054EC180913C
:100BF000FE02813009F097C08091FC02811140C053
:100C0000C0E1D3E010E065E572E0CE010E94A408E7
:100C1000892B19F410930D0104C01F5F2A961A3016
:100C200091F780910D018C3069F010920E010E94B5
:100C3000A6000E94AA0086EC92E00E94B2001092E8
:100C4000FE0223C10E94A6000E94AA0087ED92E046
:100C50000E94B20080E40E94A20088EE92E00E940E
:100C6000B20084E60E9445022FEF8EE994E2215003
:100C700080409040E1F700C0000080E00E948E01BB
:100C80008091FC02843091F480910A01833039F024
:100C90008F5F80930A0184E00E948E01F6C081E09C
:100CA00080930A0184E00E948E01EFC0833009F531
:100CB0008091F802813071F41092F80283E00E9472
:100CC0008E014AE050E060E070E08AE592E00E9428
:100CD000990BDBC081E08093F80283E00E948E01D3
:100CE0004AE050E060E070E089EA91E00E94990BF0
:100CF000CCC0823089F48091FA02813031F41092B4
:100D0000FA0282E00E948E01C0C081E08093FA0264
:100D100082E00E948E01B9C0813029F480930E01D7
:100D20000E944401B2C0C0E1D3E004E713E0BE0179
:100D300085E093E00E94A408892BD1F48091FD0204
:100D4000811103C00E945304A0C081E08093FE0281
:100D50001092FD028091FC020E948E018AE0E5E083
:100D6000F3E0DF011D928A95E9F7109203038DC02D
:100D70002A96C017D107D9F60E94FF0386C080913A
:100D80000E018930B9F089E080930E0181E08093F3
:100D9000FE02109203031092FC021092FB028AE002
:100DA000E5E0F3E0DF011D928A95E9F780E00E941B
:100DB0008E016BC00E9439028091FE02813009F0E1
:100DC00064C01092FE0261C09091FE02911113C0A6
:100DD000909103039A3008F058C0E92FF0E0EB5FE0
:100DE000FC4F8083892F0E942E01809103038F5F27
:100DF000809303034AC08533A9F48091FC028430B8
:100E000009F043C085E60E944502BFEF2EE984E267
:100E1000B15020408040E1F700C0000084E60E940D
:100E2000450233C08233C1F480910E01813051F408
:100E30008091FB02882349F181508093FB020E943C
:100E4000440123C08091FC028823F9F081508093F3
:100E5000FC020E948E0119C08833B9F480910E0102
:100E6000813051F48091FB02893078F48F5F809358
:100E7000FB020E94440109C08091FC02843029F0E9
:100E80008F5F8093FC020E948E01DF91CF911F91B2
:100E90000F9108951F920F920FB60F9211242F9267
:100EA0003F924F925F926F927F928F929F92AF92FA
:100EB000BF92CF92DF92EF92FF920F931F932F93E7
:100EC0003F934F935F936F937F938F939F93AF93D2
:100ED000BF93CF93DF93EF93FF9335992EC080910B
:100EE000FE0281112AC035991BC0C1E08091FF022A
:100EF000909100030196909300038093FF02843F3A
:100F0000914031F4C093FD0287E690E00E944502D3
:100F10008FE39FE10197F1F700C00000359BE6CF1A
:100F20008091FF0290910003843F914014F40E944D
:100F30005304109200031092FF0280910F01813040
:100F400009F0A1C080910103909102030196909352
:100F5000020380930103843F91400CF494C080917C
:100F60002D0190912E01A0912F0180932A01909341
:100F70002B01A0932C0110920F0185C0F5018191E6
:100F80005F0185B906E211E0E30193B1D8018D91CB
:100F90008D01892309F06AC080910F0181111CC065
:100FA000E0E3F1E080819181A28180932A01909316
:100FB0002B01A0932C01F1E0F0930F01109202039A
:100FC000109201032FEF80E792E021508040904083
:100FD000E1F700C000004AC0109202031092010322
:100FE000322CE12CF12C4D01A1E08A1A91082CC081
:100FF0008881853459F5BFEFEB1AFB0AE4EFEE1652
:10100000E1E0FE06DCF060E071E085E093E00E9444
:10101000A408892B99F4F1E0F093FE028091FC0280
:1010200090E00E948E01E5E0F3E0DF012AE01D92EE
:101030002A95E9F720920303332433948FE39FE149
:101040000197F1F700C00000D4019C9183B189237E
:101050009813CECF311004C0888190E00E94E6053D
:10106000EFE0F7E23197F1F700C000002396C016D9
:10107000D10609F08ACFFFEF6F1A7F0AA414B504D6
:1010800009F07CCF1AC00F2EFAE2AF2EF1E0BF2E8E
:10109000F02D0F2EF0E16F2EF1E07F2EF02D0F2EB0
:1010A000FDE24F2EF1E05F2EF02D0F2EFAE2CF2E53
:1010B000F1E0DF2EF02D212C61CFFF91EF91DF9138
:1010C000CF91BF91AF919F918F917F916F915F91E0
:1010D0004F913F912F911F910F91FF90EF90DF90D3
:1010E000CF90BF90AF909F908F907F906F905F90C8
:1010F0004F903F902F900F900FBE0F901F9018951C
:1011000082E084BD95E095BD98EC97BD80936E001C
:10111000789408950E94800887E884B98FE785B99C
:1011200088E88AB90E94C2000E94BC048091F8023B
:10113000811102C01BB802C080E88BB90E94300246
:1011400080E187B918B8FFCFFB01DC018D910190D8
:1011500080190110D9F3990B0895FB01DC0101906E
:101160000D920020E1F70895AEE0B0E0EAEBF8E080
:101170000C94BF0B0D891E8986E08C831A8309832A
:101180008FEF9FE79E838D83AE01475E5F4F6F8930
:10119000788DCE0101960E94D608EF81F885E00F88
:1011A000F11F10822E96E4E00C94DB0BABE0B0E074
:1011B000ECEDF8E00C94B10B6C017B018A01FC01B1
:1011C00017821682838181FFCCC1CE0101963C013A
:1011D000F6019381F70193FD859193FF81917F0142
:1011E000882309F4BAC1853239F493FD859193FFC0
:1011F00081917F01853229F4B60190E00E94CD0AE9
:10120000E7CF912C212C312CFFE1F315D8F08B3254
:1012100079F038F4803279F08332A1F4232D206103
:101220001DC08D3261F0803369F4232D216016C01A
:10123000832D8260382EE32DE4603E2E2AC0F32DEC
:10124000F8601DC037FC2DC020ED280F2A3040F07B
:101250008E32B9F436FC81C1232D2064322E19C0A0
:1012600036FE06C08AE0989E200D1124922E11C0F1
:10127000EAE02E9E200D1124222EF32DF0623F2E47
:1012800008C08C3621F4832D8068382E02C0883641
:1012900041F4F70193FD859193FF81917F018111C5
:1012A000B3CF982F9F7D9554933028F40C5F1F4F38
:1012B0009FE399830DC0833631F0833771F0833516
:1012C00009F059C021C0F801808189830E5F1F4F4A
:1012D00088248394912C530113C02801F2E04F0E0F
:1012E000511CF801A080B18036FE03C0692D70E06A
:1012F00002C06FEF7FEFC5010E94C20A4C0182015C
:10130000F32DFF773F2E16C0280122E0420E511C1C
:10131000F801A080B18036FE03C0692D70E002C0E4
:101320006FEF7FEFC5010E94B70A4C01F32DF06803
:101330003F2E820133FC1BC0822D90E08816990657
:10134000B0F4B60180E290E00E94CD0A2A94F4CF76
:10135000F50137FC859137FE81915F01B60190E080
:101360000E94CD0A21102A9421E0821A910881144A
:10137000910471F7E8C0843611F0893641F5F8011F
:1013800037FE07C060817181828193810C5F1F4F9E
:1013900008C060817181072E000C880B990B0E5FCD
:1013A0001F4FF32DFF763F2E97FF09C09095809534
:1013B000709561957F4F8F4F9F4FF0683F2E2AE0C9
:1013C00030E0A3010E94090B882E861845C085379E
:1013D00031F4232D2F7EB22E2AE030E025C0932D4C
:1013E000997FB92E8F36C1F018F4883579F0B5C0E1
:1013F000803719F0883721F0B0C0E92FE061BE2EA8
:10140000B4FE0DC0FB2DF460BF2E09C034FE0AC02F
:10141000292F2660B22E06C028E030E005C020E16A
:1014200030E002C020E132E0F801B7FE07C0608181
:101430007181828193810C5F1F4F06C06081718131
:1014400080E090E00E5F1F4FA3010E94090B882EE1
:101450008618FB2DFF773F2E36FE0DC0232D2E7FE5
:10146000A22E891458F434FE0BC032FC09C0832D1F
:101470008E7EA82E05C0B82CA32C03C0B82C01C0AA
:10148000B92CA4FE0FC0FE01E80DF11D8081803350
:1014900021F49A2D997EA92E09C0A2FE06C0B3940C
:1014A000B39404C08A2D867809F0B394A3FC11C0CC
:1014B000A0FE06C0B21488F4280C922C9B180EC013
:1014C000B21460F4B60180E290E00E94CD0AB394B9
:1014D000F7CFB21418F42B1802C0982C212CA4FEBC
:1014E00010C0B60180E390E00E94CD0AA2FE17C0B2
:1014F000A1FC03C088E790E002C088E590E0B60157
:101500000CC08A2D867859F0A1FE02C08BE201C082
:1015100080E2A7FC8DE2B60190E00E94CD0A89141A
:1015200038F4B60180E390E00E94CD0A9A94F7CF98
:101530008A94F301E80DF11D8081B60190E00E94CC
:10154000CD0A8110F5CF222009F442CEB60180E207
:1015500090E00E94CD0A2A94F6CFF6018681978109
:1015600002C08FEF9FEF2B96E2E10C94CD0BFC01B4
:101570000590615070400110D8F7809590958E0FBE
:101580009F1F0895FC016150704001900110D8F731
:10159000809590958E0F9F1F08950F931F93CF9363
:1015A000DF93FB01238121FD03C08FEF9FEF2CC050
:1015B00022FF16C046815781248135814217530787
:1015C00044F4A081B1819D012F5F3F4F318320837F
:1015D0008C93268137812F5F3F4F3783268314C03A
:1015E0008B01EC01FB010084F185E02D0995892B2D
:1015F000E1F6D80116968D919C9117970196179652
:101600009C938E931697CE01DF91CF911F910F91EE
:101610000895FA01AA27283051F1203181F1E89488
:101620006F936E7F6E5F7F4F8F4F9F4FAF4FB1E0D5
:101630003ED0B4E03CD0670F781F891F9A1FA11DD0
:10164000680F791F8A1F911DA11D6A0F711D811DD1
:10165000911DA11D20D009F468943F912AE0269F96
:1016600011243019305D3193DEF6CF010895462FF5
:101670004770405D4193B3E00FD0C9F7F6CF462FD6
:101680004F70405D4A3318F0495D31FD405241933F
:1016900002D0A9F7EACFB4E0A695979587957795FC
:1016A0006795BA95C9F700976105710508959B0183
:1016B000AC010A2E06945795479537952795BA950C
:1016C000C9F7620F731F841F951FA01D0895DC01C9
:1016D000CB01FC01F999FECF06C0F2BDE1BDF89A3D
:1016E000319600B40D9241505040B8F70895DC0196
:1016F000A40FB51F4150504048F0CB01840F951FF7
:101700002E910E94880B41505040D0F70895262F0B
:10171000F999FECF92BD81BDF89A019700B40216E7
:1017200039F01FBA20BD0FB6F894FA9AF99A0FBE95
:101730000895DC01CB0103C02D910E94A40B415000
:101740005040D0F70895262FF999FECF1FBA92BDC9
:1017500081BD20BD0FB6F894FA9AF99A0FBE019692
:1017600008952F923F924F925F926F927F928F9245
:101770009F92AF92BF92CF92DF92EF92FF920F9320
:101780001F93CF93DF93CDB7DEB7CA1BDB0B0FB62A
:10179000F894DEBF0FBECDBF09942A8839884888E7
:1017A0005F846E847D848C849B84AA84B984C8847D
:1017B000DF80EE80FD800C811B81AA81B981CE0F74
:1017C000D11D0FB6F894DEBF0FBECDBFED01089559
:0417D000F894FFCFBB
:1017D400373738343532353637310130750C090135
:1017E4003132333435363738394330454748464942
:1017F400454A444B434C40201008FBFDFE7B7D7E54
:10180400FBFDFE64005A00500046003C00320028F4
:10181400001E0014000A00000025642E2025730019
:10182400205052455353204520544F2044454C20CA
:101834000041444420504153530044454C205041FE
:101844005353004252555445464F524345206F6E00
:10185400004252555445464F524345206F66660038
:101864004E4F524D2E2053542E2073687574004EE3
:101874004F524D2E2053542E206F70656E006F0012
:101884004348414E474520534F554E442031200094
:101894004348414E474520534F554E442032200083
:1018A4004348414E474520534F554E442033200072
:1018B40020454E5445522050415353574F524420D3
:1018C4000020414343455353202044454E49454459
:1018D4000033204641494C5320494E204120524F69
:1018E40057002053595354454D20424C4F434B45C8
:1018F4004420002041434345535320414C4C4F570F
:1019040045440054484520444F4F522057494C4CBD
:1019140020424500434C4F53454420494E20203338
:1019240020534543006E6F6E6500636C6F7365648E
:10193400002041204E45572050415353574F5244A5
:10194400200020484153204245454E20414444450F
:10195400442000594F552043414E27542044454CC0
:101964004554450020544845204C4153542050418F
:101974005353200020205448452050415353574F7F
:101984005244202000484153204245454E204445BE
:101994004C455445440020454E544552204E45572D
:1019A4002050415353200054484552452753204E5C
:1019B4004F20504C4143450020464F522041204E79
:0819C400455720504153530028
:00000001FF
