:100000000C9434000C9451000C9451000C94510049
:100010000C9451000C9451000C9451000C941B0151
:100020000C9451000C9451000C9451000C9451000C
:100030000C9451000C9451000C9469020C945100E2
:100040000C9451000C9451000C9451000C945100EC
:100050000C9451000C9451000C9451000C945100DC
:100060000C9451000C94510011241FBECFEFD8E026
:10007000DEBFCDBF11E0A0E0B1E0E2EAF6E002C0F1
:1000800005900D92A238B107D9F721E0A2E8B1E0BE
:1000900001C01D92AF38B207E1F70E9433030C9400
:1000A0004F030C940000662311F05E9A01C05E9825
:1000B000882314F4589A01C0589886FF02C0599AB0
:1000C00001C0599885FF02C05A9A01C05A9884FF0E
:1000D00002C05C9A01C05C9800005D9A00C000C03C
:1000E0005D9883FF02C0589A01C0589882FF02C0F1
:1000F000599A01C0599881FF02C05A9A01C05A9872
:1001000080FF02C05C9A01C05C9800005D9A00C04C
:1001100000C05D98589A599A5A9A5C9A611109C020
:10012000843038F48FEC9CE00197F1F700C00000B8
:1001300008959AE69A95F1F700C0089560E00E944C
:100140005300089580580E949E00089581E00E9407
:100150009E00089582E00E949E00089561E00E9442
:1001600053000895CF93DF93EC012196FC01808129
:10017000882329F00E94AE0089918111FBCFDF9185
:10018000CF910895559A569A509A519A529A549AE4
:100190005D985E98589A599A5A9A5C9A8FE295E7B8
:1001A0000197F1F700C000005898599800005D9A37
:1001B00000C000C05D9887E090E20197F1F700C0B1
:1001C00000005D9A00C000C05D9887EC90E0019748
:1001D000F1F700C000005D9A00C000C05D989AE68B
:1001E0009A95F1F700C05C9800005D9A00C000C0CD
:1001F0005D988AE68A95F1F700C05C9800005D9AE8
:1002000000C000C05D9800C000C0589A00005D9A10
:1002100000C000C05D989AE69A95F1F700C088E0AA
:100220000E949E000E94A60086E00E949E008CE034
:100230000E949E0008951F920F920FB60F921124F4
:100240008F9388B1813011F418B802C081E088B969
:100250008F910F900FBE0F901F901895E82FF0E030
:10026000E35FFE4F80810E94A2008AE20E94AE00FE
:1002700008950E94A6000E94AA008EE291E00E94CA
:10028000B20008958AE0E5E8F1E0DF011D928A9569
:10029000E9F7109284010E9439010895CF93DF930A
:1002A0008A3019F08B3099F161C0C3EBD0E087E060
:1002B0008883A0EBB0E033E33C93E1EBF0E02FE088
:1002C00020834FEF53EF61E0415050406040E1F731
:1002D00000C0000093E09C9388E080834FEF53EFD1
:1002E00061E0415050406040E1F700C0000045E04F
:1002F00048833C9320832FEF33EF41E0215030407F
:100300004040E1F700C000009C9380832FC0C3EB06
:10031000D0E08FE08883A0EBB0E033E33C93E1EBE7
:10032000F0E080835FE769EA93E0515060409040DD
:10033000E1F700C0000023E02C9398E090834FE7A2
:1003400059EA63E0415050406040E1F700C00000CE
:1003500088833C9380838FE739EA43E081503040C3
:100360004040E1F700C000002C939083DF91CF91D3
:1003700008950E94A6000E94AA008FE391E00E94C7
:10038000B2008BE090E00E944E012FEF89E698E1E9
:10039000215080409040E1F700C000000E944201DF
:1003A00008950E94A6000E94AA008FE491E00E9496
:1003B000B20080E88BB98AE090E00E944E012FEFF6
:1003C00089E698E1215080409040E1F700C00000AC
:1003D0000E94A6000E94AA008FE591E00E94B20050
:1003E00080E40E94A20080E791E00E94B2002FEF1B
:1003F00089E698E1215080409040E1F700C000007C
:100400008BE40E94A20084E30E94AE002FEF89E6F5
:1004100098E1215080409040E1F700C000008BE45B
:100420000E94A20083E30E94AE002FEF89E698E1CC
:10043000215080409040E1F700C000008BE40E9412
:10044000A20082E30E94AE002FEF89E698E12150DE
:1004500080409040E1F700C000008BE40E94A200C1
:1004600081E30E94AE002FEF89E698E121508040A1
:100470009040E1F700C000001BB80E9442010E94BA
:1004800039010895833481F0853489F464E271E0A0
:1004900085E891E00E944603892B19F40E94D1015E
:1004A00008950E94B90108950E9442010895909113
:1004B00084019A3068F4E92FF0E0EB57FE4F808317
:1004C000892F0E942E01809184018F5F8093840187
:1004D00008951F920F920FB60F9211245F926F92A0
:1004E0007F928F929F92AF92BF92CF92DF92EF92C4
:1004F000FF920F931F932F933F934F935F936F93AD
:100500007F938F939F93AF93BF93CF93DF93EF939B
:10051000FF9380910001813009F05AC080918201DF
:100520009091830101969093830180938201843F8F
:1005300091400CF44DC080911E0190911F01A0913B
:10054000200180931B0190931C01A0931D01109228
:1005500000013EC0F60181916F0185B9C7E1D1E08C
:10056000870183B19991892339F580910001811127
:100570001AC0F30180819181A28180931B01909325
:100580001C01A0931D015092000110928301109252
:100590008201FFEF24E38CE0F15020408040E1F73E
:1005A00000C0000009C083B189239813FCCFF80173
:1005B000808190E00E9442020D5F1F4FC815D9054F
:1005C00081F6FFEFEF1AFF0ACA14DB0419F621C007
:1005D0000F2EFBE1CF2EF1E0DF2EF02D0F2EF1E0FC
:1005E000EF2EF1E0FF2EF02D0F2EFEE1AF2EF1E009
:1005F000BF2EF02D0F2EFBE18F2EF1E09F2EF02D60
:100600000F2EF1E26F2EF1E07F2EF02D5524539442
:10061000A1CFFF91EF91DF91CF91BF91AF919F91CA
:100620008F917F916F915F914F913F912F911F918A
:100630000F91FF90EF90DF90CF90BF90AF909F9081
:100640008F907F906F905F900F900FBE0F901F90D4
:10065000189582E084BD95E095BD98EC97BD809398
:100660006E00789408950E94290387E884B98FE783
:1006700085B988E88AB90E94C2000E94390117B87A
:1006800018B83599FECF0E94D101FBCFFB01DC01E8
:100690008D91019080190110D9F3990B0895F89468
:0206A000FFCF8A
:1006A20001313233343536373839433045474846DD
:1006B20049454A444B434C40201008FBFDFE7B7DDC
:1006C2007EFBFDFE31323334000000000000204585
:1006D2004E5445522050415353574F52442000200C
:1006E200414343455353202044454E49454400204D
:1006F20041434345535320414C4C4F5745440054CA
:10070200484520444F4F522057494C4C2042450007
:10071200434C4F53454420494E20203520534543F6
:020722000000D5
:00000001FF
