:100000000C9434000C9451000C9451000C94510049
:100010000C9451000C9451000C9451000C9451001C
:100020000C9451000C9451000C9451000C94030159
:100030000C9451000C9451000C9451000C945100FC
:100040000C9451000C9451000C9451000C945100EC
:100050000C9451000C9451000C9451000C945100DC
:100060000C9451000C94510011241FBECFEFD8E026
:10007000DEBFCDBF11E0A0E0B1E0E4EFF2E002C0EE
:1000800005900D92A431B107D9F721E0A4E1B1E0C8
:1000900001C01D92A631B207E1F70E946D010C94D8
:1000A00078010C940000662311F0589A01C058980A
:1000B000882314F45F9A01C05F9886FF02C05E9A9D
:1000C00001C05E9885FF02C05D9A01C05D9884FF03
:1000D00002C05C9A01C05C980000599A00C000C040
:1000E000599883FF02C05F9A01C05F9882FF02C0E7
:1000F0005E9A01C05E9881FF02C05D9A01C05D9862
:1001000080FF02C05C9A01C05C980000599A00C050
:1001100000C059985F9A5E9A5D9A5C9A611109C015
:10012000843038F48FEC9CE00197F1F700C00000B8
:1001300008959AE69A95F1F700C0089560E00E944C
:100140005300089581E00E949E00089561E00E949E
:1001500053000895519A509A579A569A559A549A1C
:10016000599858985F9A5E9A5D9A5C9A8FE295E7E3
:100170000197F1F700C000005F985E980000599A5F
:1001800000C000C0599887E090E20197F1F700C0E5
:100190000000599A00C000C0599887EC90E0019780
:1001A000F1F700C00000599A00C000C059989AE6C3
:1001B0009A95F1F700C05C980000599A00C000C001
:1001C00059988AE68A95F1F700C05C980000599A20
:1001D00000C000C0599800C000C05F9A0000599A42
:1001E00000C000C059989AE69A95F1F700C088E0DF
:1001F0000E949E000E94A20086E00E949E008CE069
:100200000E949E0008951F920F920FB60F92112424
:100210002F933F934F935F936F937F938F939F930E
:10022000AF93BF93EF93FF9310921501E0E0F0E0DE
:10023000E05FFE4F808185B91092140120E083B108
:1002400030E0F901E45FFE4F9081892391F483B19E
:1002500089239813FCCF80911501F901EE0FFF1F40
:10026000E20FF31FE050FF4FE80FF11D80810E9465
:10027000A600209114012F5F209314012430F8F27E
:10028000E0911501EF5FE0931501E33080F2FF91FB
:10029000EF91BF91AF919F918F917F916F915F91FE
:1002A0004F913F912F910F900FBE0F901F90189577
:1002B000E1E8F0E088E08083808181608083808154
:1002C0008360808388EE93E0909389008093880018
:1002D00082E080936F00789408950E9458010E94F4
:1002E000AA000E94A2008FE785B980E784B9FFCFFA
:0402F000F894FFCFB0
:1002F4003132333435363738394330450102040856
:04030400EFDFBF0068
:00000001FF
