:100000000C9434000C9451000C9451000C94510049
:100010000C9451000C9451000C9451000C9451001C
:100020000C9451000C9451000C9451000C9451000C
:100030000C9451000C9451000C948C010C945100C0
:100040000C9451000C9451000C9451000C945100EC
:100050000C9451000C9451000C9451000C945100DC
:100060000C9451000C94510011241FBECFEFD8E026
:10007000DEBFCDBF11E0A0E0B1E0E0E4F4E002C0FB
:1000800005900D92A835B107D9F721E0A8E5B1E0B8
:1000900001C01D92A336B207E1F70E940A020C9438
:1000A0001E020C940000662311F0589A01C0589863
:1000B000882314F45F9A01C05F9886FF02C05E9A9D
:1000C00001C05E9885FF02C05D9A01C05D9884FF03
:1000D00002C05C9A01C05C980000599A00C000C040
:1000E000599883FF02C05F9A01C05F9882FF02C0E7
:1000F0005E9A01C05E9881FF02C05D9A01C05D9862
:1001000080FF02C05C9A01C05C980000599A00C050
:1001100000C059985F9A5E9A5D9A5C9A611109C015
:10012000843038F48FEC9CE00197F1F700C00000B8
:1001300008959AE69A95F1F700C0089560E00E944C
:100140005300089580580E949E00089581E00E9407
:100150009E00089582E00E949E00089561E00E9442
:1001600053000895CF93DF93EC012196FC01808129
:10017000882329F00E94AE0089918111FBCFDF9185
:10018000CF910895519A509A579A569A559A549ADF
:10019000599858985F9A5E9A5D9A5C9A8FE295E7B3
:1001A0000197F1F700C000005F985E980000599A2F
:1001B00000C000C0599887E090E20197F1F700C0B5
:1001C0000000599A00C000C0599887EC90E0019750
:1001D000F1F700C00000599A00C000C059989AE693
:1001E0009A95F1F700C05C980000599A00C000C0D1
:1001F00059988AE68A95F1F700C05C980000599AF0
:1002000000C000C0599800C000C05F9A0000599A11
:1002100000C000C059989AE69A95F1F700C088E0AE
:100220000E949E000E94A60086E00E949E008CE034
:100230000E949E000895E82FF0E0E45FFE4F808169
:100240000E94A2008AE20E94AE0008950E94A600C9
:100250000E94AA0087E291E00E94B2002FEF89E697
:1002600098E1215080409040E1F700C000000E94DA
:10027000A6000E94AA0008950E94A6000E94AA005B
:1002800087E391E00E94B20008958AE0E9E5F1E099
:10029000DF011D928A95E9F7109258010E943C01F6
:1002A00008950E94A6000E94AA0088E491E00E949E
:1002B000B2002FEF89E698E1215080409040E1F7AD
:1002C00000C000000E9445010895833481F0853408
:1002D00089F46DE171E089E591E00E941502892BB6
:1002E00019F40E94260108950E94510108950E9468
:1002F00045010895909158019A3068F4E92FF0E093
:10030000E75AFE4F8083892F0E941B01809158017C
:100310008F5F8093580108951F920F920FB60F922E
:1003200011248F929F92AF92BF92CF92DF92EF9261
:10033000FF920F931F932F933F934F935F936F936E
:100340007F938F939F93AF93BF93CF93DF93EF935D
:10035000FF930F2EFAE1CF2EF1E0DF2EF02D0F2EBE
:10036000F0E0EF2EF1E0FF2EF02D0F2EFDE1AF2E8D
:10037000F1E0BF2EF02D0AE111E0F60181916F014D
:1003800085B9C6E1D1E0470183B19991892349F448
:1003900083B189239813FCCFF401808190E00E94FF
:1003A0006501F3E08F0E911CC017D10769F78FEF3D
:1003B000E81AF80ACA14DB0401F7FF91EF91DF9104
:1003C000CF91BF91AF919F918F917F916F915F91ED
:1003D0004F913F912F911F910F91FF90EF90DF90E0
:1003E000CF90BF90AF909F908F900F900FBE0F90C7
:1003F0001F90189592E090938000E1E8F0E08081F2
:100400008160808385E085BD88EC87BD90936E0018
:10041000789408950E94FA018FE785B980E784B93E
:100420000E94C2000E943C01FFCFFB01DC018D91C4
:10043000019080190110D9F3990B0895F894FFCF1A
:1004400031323334353637383943304547484649F9
:10045000454A444B434C01020408EFDFBF313233BD
:100460003400000000000020414343455353204125
:100470004C4C4F5745440020454E54455220504166
:100480005353574F52442000204143434553532078
:080490002044454E494544009B
:00000001FF
